:020000040000FA
:060000000A128A110C280F
:10000800FE00030EF8000A08F9000A128A111A28DD
:100018000A128A110F28F001F101F201F301F4012B
:10002800F501F60183010A128A117D288312031350
:100038008C1D1F28202876281412141B24282528F4
:100048002928941F2828292830281308F70077081A
:10005800F60014139413141683160313941A3528F0
:1000680036285228141939283A285228831203139B
:100078001308F7007708F6008C111416831603137B
:10008800141C4728482842288312031313088800A1
:10009800A630F700F70B4E2800007328941A55284D
:1000A80056287328141D59285A28732883120313B5
:1000B8001308F7007708F600831603131410831249
:1000C8000313050893001416A630F700F70B6A28E7
:1000D8000000831603131418722873286D288312DE
:1000E80003138C1179088A00780E8300FE0E7E0EA9
:1000F80009000A128A11C6200A128A1183120313F0
:10010800081F8728882893287408031D8C288D28A1
:100118009328750885000130FB007B08F50700303F
:10012800081B0130F400881F9A289B28A42873080C
:10013800031D9F28A028A428750885000130F50212
:100148000030881B0130F30082280A128A110C281B
:10015800FA007A08831603139300363083120313C8
:1001680094008030831603139400013091008715A2
:1001780007168B170B17831203138C11831603139F
:100188008C15080083160317880189018316031349
:1001980085018601880108178817890183120313CE
:1001A80085018601880130300A128A11AC200A12B2
:0401B8008A110800A0
:04400E00D4E0FFFFFC
:00000001FF
