:020000040000FA
:060000000A128A110C280F
:10000800FE00030EF1000A08F2000A128A111728EE
:100018000A128A110F28F501F601F701F801830188
:100028000A128A117A28831203138C1D1C281D2892
:1000380073281412141B212822282628941F2528E7
:1000480026282D281308F0007008F80014139413BC
:10005800141683160313941A322833284F281419B8
:10006800362837284F28831203131308F000700826
:10007800F8008C11141683160313141C4428452801
:100088003F288312031313088800A630F000F00BF2
:100098004B2800007028941A522853287028141DE1
:1000A800562857287028831203131308F000700885
:1000B800F8008316031314107708831203139300B0
:1000C8001416A630F000F00B6728000083160313FF
:1000D80014186F2870286A28831203138C11720869
:1000E8008A00710E8300FE0E7E0E09000A128A1124
:1000F800C8200A128A1183120313081F842885282E
:100108008E287608031D89288A288E280130F40055
:100118007408F7070030081B0130F600881F95287F
:1001280096289D287508031D9A289B289D2801302C
:10013800F7020030881B0130F50010307702031CED
:10014800A628A728A828F701770885007F280A127B
:100158008A110C28F30073088316031393003630B2
:100168008312031394008030831603139400013024
:100178009100871507168B170B17831203138C1121
:10018800831603138C150800831603178801890149
:100198008316031385018801081788178312031330
:1001A8008501880140300A128A11AE200A128A118C
:0201B80008003D
:04400E00D4E0FFFFFC
:00000001FF
