:020000040000FA
:060000000A128A110C280F
:10000800FE00030EF1000A08F2000A128A111728EE
:100018000A128A110F28F501F601F701F801830188
:100028000A128A117828831203138C1D1C281D2894
:1000380071281412141B212822282628941F2528E9
:1000480026282D281308F0007008F80014139413BC
:10005800141683160313941A322833284E281419B9
:10006800362837284E28831203131308F000700827
:10007800F8008C11141683160313141C4428452801
:100088003F2883120313130888005330F000F00B45
:100098004B286E28941A512852286E28141D55286A
:1000A80056286E28831203131308F0007008F8000E
:1000B800831603131410770883120313930014167E
:1000C8005330F000F00B66288316031314186D28BC
:1000D8006E286828831203138C1172088A00710E27
:1000E8008300FE0E7E0E09000A128A11D0200A1221
:1000F8008A1183120313081F8228832893287608FD
:10010800031D8728882893280130F4007408F7070E
:1001180010307702031C912892289328F7010030A9
:10012800081B0130F600881F9A289B28AC28750800
:10013800031D9F28A028AC280130F7021030770251
:10014800031CA728A828AC280F30F4007408F7006F
:100158000030881B0130F500770885007D280A12D9
:100168008A110C28F30073088316031393003630A2
:100178008312031394008030831603139400013014
:100188009100871507168B170B17831203138C1111
:10019800831603138C150800831603178801890139
:1001A8008316031385018801081788178312031320
:1001B8008501880140300A128A11B6200A128A1174
:0201C80008002D
:04400E00D4E0FFFFFC
:00000001FF
