:020000040000FA
:060000000A128A11FC2F18
:100CBC000A128A117A260A128A1183160313111446
:100CCC0008000A128A117A260A128A118316031353
:100CDC00111508000A128A117A260A128A11700854
:100CEC0083120313930008008316031314197F2E29
:100CFC00802E7A2E11081F39031D852E862E7A2EF2
:100D0C0008008316031788018901831603138501D4
:100D1C0086018801831203138601880185017030D6
:100D2C00831603138F04003083120313A3000130C6
:100D3C00A2008630A100A030A0000A128A11D7268A
:100D4C000A128A1108000A128A117A260A128A11CA
:100D5C008316031391150A128A117A260A128A1124
:100D6C00831203131308F200F3017208F4007308E2
:100D7C00F5000A128A117A260A128A11700371047C
:100D8C00031DC92ECA2ECE2E831603139112D12EFB
:100D9C0083160313911611167508F1007408F000F0
:100DAC000800283083120313940083160313910157
:100DBC00831203132008A4002108A5002208A60012
:100DCC002308A70002300310A40DA50DA60DA70D36
:100DDC00FF3E031DE92E2708F3002608F200250824
:100DEC00F1002408F0000030F7007A30F6001230E1
:100DFC00F5000030F4000A128A110F270A128A112A
:100E0C007008FF3E83160313930094018715071691
:100E1C0008000030FC000030FB000030FA0000300D
:100E2C00F900730872047104700403191E2F1F2F2C
:100E3C006C2FFD01FD0A2F2F0130F8000310F00D6F
:100E4C00F10DF20DF30DF80B242F0130F80078089A
:100E5C00FD07F31F322F332F222F0130F800031020
:100E6C00F90DFA0DFB0DFC0DF80B352F73087702FD
:100E7C00031D4A2F72087602031D4A2F7108750252
:100E8C00031D4A2F70087402031C4D2F4E2F5D2F2B
:100E9C007008F4027108031C710FF5027208031C30
:100EAC00720FF6027308031C730FF70279140130EA
:100EBC000310F30CF20CF10CF00CFF3E031D5E2F33
:100ECC000130FD02031D6B2F6C2F332F7C08F300B8
:100EDC007B08F2007A08F1007908F00008000A1289
:100EEC008A1187260A128A110A128A115E260A12A0
:100EFC008A115130F0000030F1000A128A1170266C
:100F0C000A128A110030F000F1000A128A11A92687
:100F1C000A128A1170088312031386000A128A11AE
:100F2C0067260A128A111A3083120313A900F730AC
:100F3C00A800A80B9F2FA90B9F2FA42F0A128A1170
:100F4C005E260A128A114130F0000030F1000A12BC
:100F5C008A1170260A128A110030F000F1000A1270
:100F6C008A11A9260A128A117008831203138500AC
:100F7C000A128A1167260A128A111A308312031375
:100F8C00A900F730A800A80BC92FA90BC92FCE2F89
:100F9C000A128A115E260A128A113130F0000030D2
:100FAC00F1000A128A1170260A128A110030F00020
:100FBC00F1000A128A11A9260A128A1170088312EA
:100FCC00031388000A128A1167260A128A111A3032
:100FDC0083120313A900F730A800A80BF32FA90B59
:100FEC00F32FF82F7A2F0A128A11002883010A1284
:040FFC008A11752FB2
:04400E00D4E0FFFFFC
:00000001FF
