:020000040000FA
:060000000A128A11FC2F18
:100CA0000A128A116C260A128A1183160313111470
:100CB00008000A128A116C260A128A11831603137D
:100CC000111508000A128A116C260A128A1170087E
:100CD0008312031393000800831603131419712E53
:100CE000722E6C2E11081F39031D772E782E6C2E54
:100CF00008008316031788018901831603138501F1
:100D00008601880183120313860188018501003062
:100D1000A3000130A2008630A100A030A0000A127A
:100D20008A11C3260A128A1108000A128A116C2637
:100D30000A128A118316031391150A128A116C265E
:100D40000A128A11831203131308F200F3017208C6
:100D5000F4007308F5000A128A116C260A128A112F
:100D600070037104031DB52EB62EBA2E831603131D
:100D70009112BD2E83160313911611167508F100FA
:100D80007408F000080028308312031394008316BF
:100D900003139101831203132008A4002108A50066
:100DA0002208A6002308A70002300310A40DA50DF9
:100DB000A60DA70DFF3E031DD52E2708F30026081C
:100DC000F2002508F1002408F0000030F7007A3026
:100DD000F6001230F5000030F4000A128A11FB26EA
:100DE0000A128A117008FF3E8316031393009401C0
:100DF0008715071608000030FC000030FB000030AB
:100E0000FA000030F90073087204710470040319C9
:100E10000A2F0B2F582FFD01FD0A1B2F0130F80060
:100E20000310F00DF10DF20DF30DF80B102F013042
:100E3000F8007808FD07F31F1E2F1F2F0E2F01301B
:100E4000F8000310F90DFA0DFB0DFC0DF80B212F26
:100E500073087702031D362F72087602031D362FA2
:100E600071087502031D362F70087402031C392F98
:100E70003A2F492F7008F4027108031C710FF50214
:100E80007208031C720FF6027308031C730FF7023B
:100E9000791401300310F30CF20CF10CF00CFF3E4E
:100EA000031D4A2F0130FD02031D572F582F1F2FFE
:100EB0007C08F3007B08F2007A08F1007908F00062
:100EC00008000A128A1179260A128A110A128A1156
:100ED00050260A128A115030F0000030F1000A1238
:100EE0008A1162260A128A11831203130608A800C7
:100EF000A9012808F0002908F1000A128A116226C7
:100F00000A128A110A128A1159260A128A1102300B
:100F100083120313AA000430A900B930A800A80B5B
:100F20008F2FA90B8F2FAA0B8F2F962F0A128A11A2
:100F300050260A128A115130F0000030F1000A12D6
:100F40008A1162260A128A110030F000F1000A129A
:100F50008A1195260A128A117008831203138800D9
:100F60000A128A1159260A128A11023083120313B7
:100F7000AA000430A900B930A800A80BBD2FA90B06
:100F8000BD2FAA0BBD2FC42F0A128A1150260A1298
:100F90008A114130F0000030F1000A128A116226F5
:100FA0000A128A110030F000F1000A128A11952607
:100FB0000A128A1170088312031385000A128A111B
:100FC00059260A128A11023083120313AA00043030
:100FD000A900B930A800A80BEB2FA90BEB2FAA0B87
:100FE000EB2FF22F013083120313A8002808860785
:100FF000662F0A128A11002883010A128A11612FB2
:04400E00D4E0FFFFFC
:00000001FF
