:020000040000FA
:060000000A128A11E62F2E
:10000C00F501F6017008710403190D280E28452816
:10001C00F701F70A1C2801300310F00DF10DFF3E1B
:10002C00031D12280130F4007408F707F11F1F2874
:10003C002028112801300310F50DF60DFF3E031D8D
:10004C00212871087302031D2D2870087202031CED
:10005C003028312838287008F2027108031CF30389
:10006C00F302751401300310F10CF00CFF3E031D6C
:10007C0039280130F702031D44284528202876082A
:10008C00F1007508F000080083120313AB00213057
:10009C00A3002308A6001B2925302C06031957287A
:1000AC00582864282C08A3002B08840023088313E9
:1000BC0080000130A3002308AB071B29A7010130E6
:1000CC00A007FF30200784000A128A150A200A12A2
:1000DC008A11AC00A300A4012408003A0319772864
:1000EC001B292308003A03192D29643A0319822885
:1000FC000D3A031982281B29260884008313000853
:10010C00A900840A0008AA000230A3002308A6074D
:10011C00AA1F912892289B280330A3002308A70428
:10012C00A909AA09A90A0319AA0AAC01AC0A2C0844
:10013C00A3002307013E84000A128A150A200A1222
:10014C008A11A4000A128A150A200A128A11A50023
:10015C0025082A02031DB428240829020318B728ED
:10016C00B828B928C3280130A3002308AC070530F0
:10017C002C06031DC228C3289D2827080339031900
:10018C00C828C928D4282D30A3002B0884002308A4
:10019C00831380000130A3002308AB072C08A300B5
:1001AC002308A80012290A30F8000030F9002808AA
:1001BC00A3002307013E84000A128A150A200A12A2
:1001CC008A11F0000A128A150A200A128A11F1000B
:1001DC002A08F3002908F2000A128A1106200A12D2
:1001EC008A117108FB007008FA000A128A15222184
:1001FC000A128A117808303E83120313A4002408D3
:10020C00AC002C08A3002B08840023088313800067
:10021C000130A3002308AB07FF30A3002308A80775
:10022C00280A031D1A291B29D9280130A007FF30E1
:10023C00200784000A128A150A200A128A11A300C8
:10024C002308AC002C08031D2C292D2952282B081F
:10025C0084008313800108000A128A1594200A1264
:10026C008A11F301F30A01300A168A11E5270A12E2
:10027C008A110E30F3008030F4000A128A155C21CA
:10028C000A128A11F301F30A07300A168A11E527BC
:10029C000A128A111130F3008030F4000A128A1508
:1002AC005C210A128A11F301F30A0D300A168A1125
:1002BC00E5270A128A111430F3008030F4000A1278
:1002CC008A155C210A128A110A168A1194270A12BD
:1002DC008A115130F0000030F1000A168A11A6275D
:1002EC000A128A110030F000F1000A128A15BC20A3
:1002FC000A128A11700883120313E4007108E500D6
:10030C00E601E7016708F9006608F8006508F700E0
:10031C006408F60000300A128A15CF220A128A11DC
:10032C00790883160313A3007808A2007708A100AC
:10033C007608A0000A168A119D270A128A110D3020
:10034C0083120313E500FB30E400E40BAB29E50B4F
:10035C00AB290A168A1194270A128A114130F0002F
:10036C000030F1000A168A11A6270A128A110030F1
:10037C00F000F1000A128A15BC200A128A117008CA
:10038C0083120313E4006408EF000A168A119D27F8
:10039C000A128A110D3083120313E500FB30E400BE
:1003AC00E40BD629E50BD6290A168A1194270A12D2
:1003BC008A113130F0000030F1000A168A11A6279C
:1003CC000A128A110030F000F1000A128A15BC20C2
:1003DC000A128A11700883120313E4007108E500F5
:1003EC00E601E7016708F9006608F8006508F70000
:1003FC006408F60000300A128A15CF220A128A11FC
:10040C00790883160313A7007808A6007708A500BF
:10041C007608A4000A168A119D270A128A110D303B
:10042C0083120313E500FB30E400E40B1B2AE50BFD
:10043C001B2A433083120313CD007F30CC000030D5
:10044C00CB000030CA004030B300A030B200003006
:10045C00B1000030B000831603132308831203137A
:10046C00B70083160313220883120313B6008316F6
:10047C000313210883120313B500831603132008FA
:10048C0083120313B4000A128A1185240A128A11EA
:10049C00831203133308D1003208D0003108CF0087
:1004AC003008CE000A128A158B230A128A11831285
:1004BC0003134D0883160313A300831203134C0874
:1004CC0083160313A200831203134B088316031322
:1004DC00A100831203134A0883160313A0002308F8
:1004EC0083120313CD008316031322088312031304
:1004FC00CC0083160313210883120313CB0083163D
:10050C000313200883120313CA000A128A155322FC
:10051C000A128A11831203134A08E4006408EE00DD
:10052C0083160313230883120313AF0083160313DC
:10053C00220883120313AE008316031321088312BF
:10054C000313AD0083160313200883120313AC00AE
:10055C006E08E400E501E601E7016708F9006608AA
:10056C00F8006508F7006408F60001300A128A15D5
:10057C00CF220A128A11790883120313AB00780870
:10058C00AA007708A9007608A8000A128A15492043
:10059C000A128A11831203132B08B7002A08B6001B
:1005AC002908B5002808B4004230B300C830B200A6
:1005BC000030B1000030B0000A128A1185240A12F2
:1005CC008A11831203133308CD003208CC00310892
:1005DC00CB003008CA000A128A1553220A128A115B
:1005EC00831203134A08E8006808ED006D08E40064
:1005FC006408EC000230E4006408F30001300A16D1
:10060C008A11E5270A128A11831203136E080A1243
:10061C008A152B200A128A112E300A168A11D1271C
:10062C000A128A110A30831203136C02031C1F2B4B
:10063C00202B272B6C080A128A152B200A128A11E0
:10064C00352B30300A168A11D1270A128A118312DF
:10065C0003136C080A128A152B200A128A114330D4
:10066C0083120313CD007F30CC000030CB00003060
:10067C00CA004030B300A030B2000030B1000030EE
:10068C00B00083160313270883120313B7008316D5
:10069C000313260883120313B600831603132508CD
:1006AC0083120313B5008316031324088312031358
:1006BC00B4000A128A1185240A128A1183120313B8
:1006CC003308D1003208D0003108CF003008CE00FA
:1006DC000A128A158B230A128A11831203134D08EE
:1006EC0083160313A700831203134C0883160313FA
:1006FC00A600831203134B0883160313A500831261
:10070C0003134A0883160313A40027088312031348
:10071C00CD0083160313260883120313CC00831613
:10072C000313250883120313CB0083160313240829
:10073C0083120313CA000A128A1553220A128A1151
:10074C00831203134A08E4006408EB0083160313B6
:10075C00270883120313AF00831603132608831292
:10076C000313AE0083160313250883120313AD0085
:10077C0083160313240883120313AC006B08E400E4
:10078C00E501E601E7016708F9006608F80065086D
:10079C00F7006408F60001300A128A15CF220A12FB
:1007AC008A11790883120313AB007808AA00770822
:1007BC00A9007608A8000A128A1549200A128A1183
:1007CC00831203132B08B7002A08B6002908B500BA
:1007DC002808B4004230B300C830B2000030B10079
:1007EC000030B0000A128A1185240A128A11831271
:1007FC0003133308CD003208CC003108CB0030088D
:10080C00CA000A128A1553220A128A118312031380
:10081C004A08E8006808EA006A08E4006408E9008D
:10082C000230E4006408F3000D300A168A11E52743
:10083C000A128A11831203136B080A128A152B20D1
:10084C000A128A112E300A168A11D1270A128A111D
:10085C000A30831203136C02031C352C362C3D2CEE
:10086C0069080A128A152B200A128A114B2C303077
:10087C000A168A11D1270A128A11831203136908E6
:10088C000A128A152B200A128A110A3083120313BA
:10089C006F020318522C532C6F2C0230E4006408A6
:1008AC00F30007300A168A11E5270A128A1117304D
:1008BC00F3008030F4000A128A155C210A128A11A6
:1008CC00831203136F080A128A152B200A128A113D
:1008DC006A290230E4006408F30007300A168A1112
:1008EC00E5270A128A11831203136F080A128A155C
:1008FC002B200A128A116A290A128A1100288312E3
:10090C00031333088039B8003808BD003308B80029
:10091C003807B9003908C300B21F952C962C972CB8
:10092C004314430803199B2C9C2CAB2C430A031D2A
:10093C00A02CA12CA92C0030B3000030B200003048
:10094C00B1000030B000B217B32C0030B30000304F
:10095C00B2000030B1000030B00037088039B80068
:10096C003808BD063708B8003807B9003908C20086
:10097C00B61FC12CC22CC32C421442080319C72C1D
:10098C00C82CD72C420A031DCC2CCD2CD52C0030D6
:10099C00B7000030B6000030B5000030B400B61718
:1009AC00DF2C0030B7000030B6000030B50000304E
:1009BC00B40042080319E32CE42CE92C4308031D72
:1009CC00E82CE92CF22C0030B3000030B2000030DF
:1009DC00B1000030B000E52F3008B8003808F00046
:1009EC0036080A128A156D200A128A1171088312B0
:1009FC000313C9007008C8004808B800B901BA014F
:100A0C00BB013B08C1003A08C0003908BF003808D8
:100A1C00BE004908B800B901BA01BB013B08C700C8
:100A2C003A08C6003908C5003808C4003108B800B7
:100A3C003808F00035080A128A156D200A128A113E
:100A4C00710883120313C9007008C8004808B80065
:100A5C00B901BA01BB013808BE07390803110318E4
:100A6C00013E03193A2DBF073A0803110318013E42
:100A7C000319412DC0073B0803110318013E03194C
:100A8C00482DC1074908B800B901BA01BB013808A3
:100A9C00C407390803110318013E0319562DC50765
:100AAC003A0803110318013E03195D2DC6073B08D4
:100ABC0003110318013E0319642DC7073208B8004F
:100ACC003808F00034080A128A156D200A128A11AF
:100ADC00710883120313C9007008C8004808B800D5
:100AEC00B901BA01BB013808BE0739080311031854
:100AFC00013E0319822DBF073A0803110318013E6A
:100B0C000319892DC0073B0803110318013E031973
:100B1C00902DC1074908B800B901BA01BB013808CA
:100B2C00C407390803110318013E03199E2DC5078C
:100B3C003A0803110318013E0319A52DC6073B08FB
:100B4C0003110318013E0319AC2DC7070830B80078
:100B5C000310BE0DBF0DC00DC10DB80BAE2D31086D
:100B6C00B8003808F00034080A128A156D200A12F1
:100B7C008A11710883120313C9007008C800480851
:100B8C00B8004908B900BA01BB013808BE073908DA
:100B9C0003110318013E0319D42DBF073A080311A2
:100BAC000318013E0319DB2DC0073B080311031882
:100BBC00013E0319E22DC1073008B8003808F000D7
:100BCC0035080A128A156D200A128A1171088312CF
:100BDC000313C9007008C8004808B8004908B900D8
:100BEC00BA01BB013808BE07390803110318013ECE
:100BFC000319012EBF073A0803110318013E03190C
:100C0C00082EC0073B0803110318013E03190F2ED1
:100C1C00C1070830B8000310BE0DBF0DC00DC10DCB
:100C2C00B80B112E3008B8003808F00034080A123E
:100C3C008A156D200A128A11710883120313C900D8
:100C4C007008C8004808B8004908B900BA01BB01CF
:100C5C003808BE07390803110318013E0319372E53
:100C6C00BF073A0803110318013E03193E2EC007B3
:100C7C003B0803110318013E0319452EC107310827
:100C8C00B8003808F00036080A128A156D200A12CE
:100C9C008A11710883120313C9007008C800480830
:100CAC00B8004908B900BA01BB013808C4073908B3
:100CBC0003110318013E0319642EC5073A080311EA
:100CCC000318013E03196B2EC6073B0803110318CA
:100CDC00013E0319722EC7073208B8003808F0001D
:100CEC0035080A128A156D200A128A1171088312AE
:100CFC000313C9007008C8004808B8004908B900B7
:100D0C00BA01BB013808C407390803110318013EA6
:100D1C000319912EC5073A0803110318013E031954
:100D2C00982EC6073B0803110318013E03199F2E8A
:100D3C00C7073208B8003808F00036080A128A15BE
:100D4C006D200A128A11710883120313C9007008EE
:100D5C00C8004808B8004908B900BA01BB010830FE
:100D6C000310B80DB90DBA0DBB0DFF3E031DB62E09
:100D7C003808C407390803110318013E0319C72E9C
:100D8C00C5073A0803110318013E0319CE2EC607F6
:100D9C003B0803110318013E0319D52EC7073E0863
:100DAC00B8003F08B9004008BA004108BB00183031
:100DBC000310BB0CBA0CB90CB80CFF3E031DDE2E95
:100DCC003808C407390803110318013E0319EF2E24
:100DDC00C5073A0803110318013E0319F62EC6077E
:100DEC003B0803110318013E0319FD2EC7070830F9
:100DFC00B8000310BE0DBF0DC00DC10DB80BFF2EFA
:100E0C0043084207B800B901B90D3808823EC80042
:100E1C0039080318013EFF3EC900312F0130B800DC
:100E2C000310C40DC50DC60DC70DB80B162FC11F71
:100E3C00202F212F222F44140130B8000310BE0D97
:100E4C00BF0DC00DC10DB80B242FFF30C807031800
:100E5C00C90AFF30C907C61F342F352F142FC20102
:100E6C00C11F392F3A2F562FFF303E05B800FF30E7
:100E7C003F05B900FF304005BA007F304105BB008B
:100E8C003B083A043904380403194D2F4E2F512FC7
:100E9C00C201C20A562F441C542F552F562F4E2FC9
:100EAC00420803195A2F5B2F8C2F0130C4070030D6
:100EBC0003180130C507003003180130C607003095
:100ECC0003180130C707471C6C2F6D2F8C2F44085B
:100EDC00B8004508B9004608BA004708BB00013005
:100EEC00BC003B0DBB0CBA0CB90CB80CBC0B772F6F
:100EFC003B08C7003A08C6003908C5003808C400CA
:100F0C000130C8070318C90A0030C9074908803ADC
:100F1C00FF0080307F02031D952FFF304802031C19
:100F2C00982F992FA42F7F3083120313C700803082
:100F3C00C6000030C5000030C400D92F8312031343
:100F4C004908803AFF0080307F02031DAF2F01302B
:100F5C0048020318B22FB32FBF2F00308312031394
:100F6C00C7000030C6000030C5000030C400BD0111
:100F7C00D92F831203134808B8003808C300FF3078
:100F8C00C405FF30C5057F30C6050030C705431CBE
:100F9C00D02FD12FD22FC6174308B8000310380C0E
:100FAC00B9003908C7003D08B8003808C70447081D
:100FBC00B3004608B2004508B1004408B000080070
:100FCC0083120313E901EA01EB01EC01ED01EE01DF
:100FDC00EF0183160313A001A101A201A301A40137
:100FEC00A501A601A701A801A901AA0183010A1262
:100FFC008A113229FF1B0A2883137F1883170008D4
:10100C00840A0319FF0A080008308A000408840ABD
:10101C0082070034013400340A3400346434003460
:10102C00E834033410342734253464340034533416
:10103C0031340034533432340034533433340034C8
:04104C003034003408
:1010560083120313B4000B30AD002D08A000340832
:10106600AE00AF012E08A1002F08A20030300A12F0
:101076008A114A200A128A153030F3000030F40033
:101086000A128A155C210A128A150800803083121A
:101096000313AB062F08F3002E08F2002D08F1000B
:1010A6002C08F0002B08F7002A08F6002908F5009E
:1010B6002808F4000A128A1568250A128A15730888
:1010C60083120313AB007208AA007108A900700806
:1010D600A8000800F800F401F5017008F200F30119
:1010E6007208F6007308F700781C7A287B28812896
:1010F6007608F4070318F50A7708F5070130031098
:10110600F60DF70DFF3E031D82280310F80C780834
:10111600031D8E288F2877287508F1007408F000C3
:1011260008008316031788018901831603138501B6
:1011360086018801831203138601850188010A123C
:101146008A159E210A128A150A168A118D270A12F5
:101156008A15003083120313A3000130A2008630E3
:10116600A100A030A0000A128A15EA200A128A15E8
:1011760008000A168A11B0270A128A158316031365
:1011860091150A168A11B0270A128A1583120313BB
:101196001308F200F3017208F4007308F5000A164A
:1011A6008A11B0270A128A1570037104031DDC2800
:1011B600DD28E128831603139112E428831603130E
:1011C600911611167508F1007408F0000800283011
:1011D60083120313940083160313910183120313DE
:1011E6002008A4002108A5002208A6002308A700BD
:1011F60002300310A40DA50DA60DA70DFF3E031D7D
:10120600FC282708F3002608F2002508F100240828
:10121600F0000030F7003D30F6000930F5000030F0
:10122600F4000A128A15ED210A128A157008FF3E8B
:101236008316031393009401871507160800780890
:1012460079040319272928295729FD01FD0A36297A
:1012560001300310F80DF90DFF3E031D2C29013056
:10126600FC007C08FD07F91F39293A292B29790842
:101276007B02031D402978087A02031C432944296E
:101286004A297808FA027908031CFB03FB0201309D
:101296000310F90CF80CFF3E031D4B290130FD022B
:1012A600031D562957293A297B08F9007A08F800C0
:1012B6000800F801F901812978087307F600740817
:1012C600F5000318F50AF81F6929F5037508F700F4
:1012D600770883120313FF00760884000A128A1522
:1012E60000200A128A150A168A11D1270A128A15AF
:1012F6000130F8070318F90A0030F9077808730770
:10130600F6007408F5000318F50AF81F8B29F50393
:101316007508F700770883120313FF007608840028
:101326000A128A1500200A128A15003A031D9C2902
:101336009D295F2908001430F4007930F300F30B7F
:10134600A229F40BA229A72930300A168A11BD2733
:101356000A128A150730F4007D30F300F30BB12929
:10136600F40BB12930300A168A11BD270A128A15E4
:101376000F30F4004730F300F30BBF29F40BBF29FD
:10138600C42930300A168A11BD270A128A1535304B
:10139600F300F30BCC2938300A168A11BD270A123E
:1013A6008A1510300A168A11BD270A128A150130CD
:1013B6000A168A11BD270A128A1506300A168A11DC
:1013C600BD270A128A150C300A168A11BD270A1281
:1013D6008A1508000030FC000030FB000030FA00DF
:1013E6000030F90073087204710470040319FC29B3
:1013F600FD294A2AFD01FD0A0D2A0130F8000310D5
:10140600F00DF10DF20DF30DF80B022A0130F80084
:101416007808FD07F31F102A112A002A0130F80068
:101426000310F90DFA0DFB0DFC0DF80B132A7308CA
:101436007702031D282A72087602031D282A7108DE
:101446007502031D282A70087402031C2B2A2C2AF5
:101456003B2A7008F4027108031C710FF50272082A
:10146600031C720FF6027308031C730FF70279143C
:1014760001300310F30CF20CF10CF00CFF3E031DCF
:101486003C2A0130FD02031D492A4A2A112A7C08FA
:10149600F3007B08F2007A08F1007908F0000800F2
:1014A6000310831203134C0D4D0DCE004E08D400CD
:1014B6005408031D5F2A602A692A0030CD000030D7
:1014C600CC000030CB000030CA00CE2A4A08CE003D
:1014D6004B08CF004C08D0004D08D1001F30031038
:1014E600D10CD00CCF0CCE0CFF3E031D722A4E0839
:1014F600D2005208D300CC17FF30CA05FF30CB0507
:10150600FF30CC050030CD059630D402D41F8C2A8E
:101516008D2AA72A5408803A973E0318932A942ABC
:10152600952A602A01300310CD0CCC0CCB0CCA0CCA
:10153600FF3E031D962A0130CE004E08D407031D38
:10154600A52AA62A952ABE2A20305402031CAC2AB4
:10155600AD2AB92A602A0130CE000310CA0DCB0D80
:10156600CC0DCD0DCE0BB02A0130D4025408031D8C
:10157600BD2ABE2AAE2A53080319C22AC32ACE2A76
:10158600CA09CB09CC09CD09CA0A0319CB0A031922
:10159600CC0A0319CD0A080083120313A000200801
:1015A6000319D62AD72AEB2AF91FDA2ADB2AEB2ACD
:1015B6007609A2007709A3007809A4007909A50095
:1015C600A20A0319A30A0319A40A0319A50AF32AEE
:1015D6007908A5007808A4007708A3007608A20079
:1015E6007908780477047604031DFA2AFB2A042B6B
:1015F6000030F9000030F8000030F7000030F60047
:101606008A2B9630FA007A08A100162B0130FA00D0
:101616007A08A10701300310A50CA40CA30CA20C98
:10162600FF3E031D0E2BFE302505031D1B2B1C2B19
:10163600092B382B0130FA007A08A1070130A207DE
:10164600003003180130A307003003180130A40747
:10165600003003180130A50701300310A50CA40CB7
:10166600A30CA20CFF3E031D302BFF302505031DE6
:101676003D2B3E2B1D2B4A2B0130A1020130FA00D7
:101686000310A20DA30DA40DA50DFA0B432BA41B4D
:101696004D2B4E2B542B023021020318532B542B67
:1016A6003F2B2118572B582B602BFF30A205FF30FC
:1016B600A3057F30A405FF30A5050310A10C210862
:1016C600FA00FB01FC01FD0118300310FA0DFB0DB9
:1016D600FC0DFD0DFF3E031D682B7A08A2047B0856
:1016E600A3047C08A4047D08A504200803197C2B08
:1016F6007D2B822BF91F802B812B822BA51725088A
:10170600F9002408F8002308F7002208F60008006C
:101716008312031351088039D2005208DB005108A6
:10172600D2005207D3005308E200D01F9B2B9C2BFC
:101736009D2B621462080319A12BA22BB22B620AFD
:10174600031DA62BA72BAF2B0030D1000030D000F5
:101756000030CF000030CE00D017D101BA2B0030B8
:10176600D1000030D0000030CF000030CE004D0850
:101776008039D2005208DB064D08D2005207D3004A
:101786005308E300CC1FC82BC92BCA2B631463086C
:101796000319CE2BCF2BDF2B630A031DD32BD42BA0
:1017A600DC2B0030CD000030CC000030CB00003008
:1017B600CA00CC17CD01E72B0030CD000030CC009D
:1017C6000030CB000030CA004D084C044B044A04DC
:1017D600031DEE2BEF2B082C0030D1000030D0007B
:1017E6000030CF000030CE008030D0047F30D104EE
:1017F6005B08D2005208D1045108CD005008CC0035
:101806004F08CB004E08CA00672D6208031D0C2C3A
:101816000D2C162C0030CD000030CC000030CB0053
:101826000030CA00672D6208D200D3015308D500E4
:1018360063085202D400031CD50354087F3EDC0023
:1018460055080318013E003EDD005108DA00500835
:10185600D9004F08D8004E08D7000030D10000301C
:10186600D0000030CF000030CE000030E100003064
:10187600E0000030DF000030DE00E3018C2C63085E
:101886000319462C472C672C0130D2000310D70DC4
:10189600D80DD90DDA0DD20B492C0130D200031028
:1018A600CE0DCF0DD00DD10DD20B522CE11F5C2CDD
:1018B6005D2C5E2C4E140130D2000310DE0DDF0DC0
:1018C600E00DE10DD20B602C4D085A02031D752C5C
:1018D6004C085902031D752C4B085802031D752C24
:1018E6004A085702031C782C792C882C61174A0861
:1018F600D7024B08031C4B0FD8024C08031C4C0F95
:10190600D9024D08031C4D0FDA020130D2005208ED
:10191600E3071A306302031C912C922C422C5A08BE
:101926005904580457040319992C9A2CB92C5E149F
:10193600B92C0130D2000310CE0DCF0DD00DD10D34
:10194600D20B9E2CE11FA82CA92CAA2C4E140130D8
:10195600D2000310DE0DDF0DE00DE10DD20BAC2C35
:10196600FF30DC070318DD0AFF30DD07D01FBC2C73
:10197600BD2C9C2CE301E11FC12CC22CDE2CFF30B8
:101986005E05D200FF305F05D300FF306005D4004E
:101996007F306105D50055085404530452040319D9
:1019A600D52CD62CD92CE301E30ADE2C4E1CDC2CDC
:1019B600DD2CDE2CD62C63080319E22CE32C142D27
:1019C6000130CE07003003180130CF07003003186E
:1019D6000130D007003003180130D107511CF42C18
:1019E600F52C142D4E08D2004F08D3005008D40011
:1019F6005108D5000130D600550DD50CD40CD30CAA
:101A0600D20CD60BFF2C5508D1005408D000530831
:101A1600CF005208CE000130DC070318DD0A003083
:101A2600DD075D08803AFF0080307F02031D1D2D13
:101A3600FF305C02031C202D212D2F2DFF30831239
:101A46000313DC000030DD000030D1000030D00090
:101A56000030CF000030CE00831203135D08803AB9
:101A6600FF0080307F02031D3A2D01305C0203180F
:101A76003D2D3E2D4B2D83120313DC01DD0100307D
:101A8600D1000030D0000030CF000030CE00DB01A6
:101A9600831203135C08D2005208E200621C542D24
:101AA600552D572DD0175B2D7F30D2005208D0050B
:101AB6006208D2000310520CD3005308D1005B0811
:101AC600D2005208D104FF2B080073088039831214
:101AD6000313A0002008F8007308A0002007A10047
:101AE6002108FA00F21F782D792D7A2D7A147A08BA
:101AF60003197E2D7F2D8F2D7A0A031D832D842DAC
:101B06008C2D0030F3000030F2000030F100003080
:101B1600F000F217F301972D0030F3000030F200C9
:101B26000030F1000030F00077088039A00020086E
:101B3600F900790878060319A12DA22DA32D78178F
:101B46007708A0002007A1002108F900F61FAC2D98
:101B5600AD2DAE2D791479080319B22DB32DC32DF1
:101B6600790A031DB72DB82DC02D0030F7000030BF
:101B7600F6000030F5000030F400F617F701CB2D23
:101B86000030F7000030F6000030F5000030F400B9
:101B96007A0879020318D02DD12D152E781FD42D51
:101BA600D52DD92D8030A0002008F8067A08A0008F
:101BB6002008FB007908A0002008FA007B08A00096
:101BC6002008F9007008A0002008FB007408A00097
:101BD6002008F0007B08A0002008F4007108A0008F
:101BE6002008FB007508A0002008F1007B08A00073
:101BF6002008F5007208A0002008FB007608A00067
:101C06002008F2007B08A0002008F6007308A00058
:101C16002008FB007708A0002008F3007B08A0003E
:101C26002008F700FB017908A000A1012108A30004
:101C36007A082002A200031CA3032308803AFF00AF
:101C460080307F02031D292E1A302202031C2C2EFF
:101C56002D2E6E2E7308720471047004031D342E2B
:101C6600362E0130372E003083120313A0002008D1
:101C7600FB000030F3000030F2000030F1000030CD
:101C8600F0007908A0002008FA00742E7B1C4C2E68
:101C96004D2E582E7B0883120313A0000310200C30
:101CA6000138A1002108FB005A2E0310FB0C701C02
:101CB6005D2E5E2E5F2EFB17013083120313A000EC
:101CC600730DF30CF20CF10CF00CA00B632E01302B
:101CD600A0002008FA0779087A02031C732E742ED6
:101CE600492E781B772E782EC72E7A08031D7C2E58
:101CF6007D2E862E0030F3000030F2000030F10019
:101D06000030F000FF2F7408F00775080311031860
:101D1600013E03198F2EF107760803110318013EC1
:101D26000319962EF207770803110318013E0319CB
:101D36009D2EF307731CA02EA12E7F2F7B1CA42E95
:101D4600A52EB02E7B0883120313A0000310200CCF
:101D56000138A1002108FB00B22E0310FB0C701CF9
:101D6600B52EB62EB72EFB17013083120313A00033
:101D7600730DF30CF20CF10CF00CA00BBB2E013022
:101D8600A0002008FA077F2F7308803AFF00770823
:101D9600803A7F02031DD92E76087202031DD92EC2
:101DA60075087102031DD92E740870020318DC2E03
:101DB600DD2E372FFF3083120313A000FF30A10062
:101DC600FF30A200FF30A3007408A4007508A50028
:101DD6007608A6007708A7007008A4027108031CFD
:101DE600710FF62EF72EA5027208031C720FFC2E39
:101DF600FD2EA6027308031C730F022F032FA702E2
:101E06002408A00725080318250F0A2F0B2FA10762
:101E160026080318260F102F112FA20727080318CC
:101E2600270AA3072308F3002208F2002108F1007D
:101E36002008F0008030A0002008F806FB09FB0A05
:101E46007B08031D272F282F452F0130F007003070
:101E560003180130F107003003180130F207003093
:101E660003180130F307452F7408F0027508031CA8
:101E7600750FF1027608031C760FF2027708031C31
:101E8600770FF3027308720471047004031D4C2F5C
:101E96004D2F7B2F7B08031D512F522F7B2F003098
:101EA600F3000030F2000030F1000030F000FF2FA8
:101EB600013083120313A0000310F00DF10DF20D93
:101EC600F30DA00B5F2FFB1F692F6A2F6B2F70146A
:101ED6007B1C6E2F6F2F722F0314FB0D742F0310B4
:101EE600FB0D7A080319782F792F7B2F0130FA0220
:101EF600F21F7E2F7F2F5B2FF901FB1F832F842F6D
:101F0600922F7B087F390319892F8A2F8D2FF9018C
:101F1600F90A922F701C902F912F922F8A2F7908F1
:101F26000319962F972FCD2F0130F0070030031895
:101F36000130F107003003180130F20700300318B2
:101F46000130F307731CA82FA92FCD2F7008831219
:101F56000313A0007108A1007208A2007308A30071
:101F66000130A400230DA30CA20CA10CA00CA40B01
:101F7600B52F2308F3002208F2002108F1002008FB
:101F8600F0007A0A0319C82FC92FCD2F0130A000FF
:101F96002008FA077A0A0319D12FD22FD72F7A08E9
:101FA600031DD62FD72FE52F0030F3000030F200A7
:101FB6000030F1000030F0007A08031DE32FE42F13
:101FC600E52FF8017A1CE82FE92FEB2FF217F12FF6
:101FD6007F3083120313A0002008F2057A088312CB
:101FE6000313A0000310200CA1002108F300F81F22
:0A1FF600FD2FFE2FFF2FF317080048
:102F1A0001300A168A11BD270A168A1108000A16F4
:102F2A008A11B0270A168A1183160313111408008E
:102F3A000A168A11B0270A168A1183160313111565
:102F4A0008000A168A11B0270A168A117008831215
:102F5A00031393000800831603131419B52FB62F11
:102F6A00B02F11081F39031DBB2FBC2FB02F08002B
:102F7A00F2008312031306137208850086170630BF
:102F8A00F1003030F000F00BC82FF10BC82F000011
:102F9A008312031386130800F20083120313061721
:102FAA007208850086170630F1003030F000F00B09
:102FBA00DC2FF10BDC2F00008312031386130800A9
:102FCA00F4007303031DEA2FEB2FF22F74087F3EE0
:102FDA000A168A11BD270A168A1102307306031DC2
:102FEA00F72FF82FFF2F7408BF3E0A168A11BD2744
:062FFA000A168A1108000E
:04400E00D4E0FFFFFC
:00000001FF
