:020000040000FA
:060000000A128A110C280F
:10000800FE00030EF1000A08F2000A128A111528F0
:100018000A128A110F28F801F90183010A128A11BC
:10002800DF28831203138C1D1A281B287128141229
:10003800141B1F2820282428941F232824282B2811
:100048001308F0007008F90014139413141683169B
:100058000313941A302831284D28141934283528C8
:100068004D28831203131308F0007008F9008C114F
:10007800141683160313141C422843283D288312A0
:10008800031313088800A630F000F00B492800007D
:100098006E28941A502851286E28141D5428552863
:1000A8006E28831203131308F0007008F9008316F2
:1000B8000313141083120313060893001416A630B2
:1000C800F000F00B652800008316031314186D2840
:1000D8006E286828831203138C110C1F7428752846
:1000E8007A288B128B138B118B160C1372088A00CB
:1000F800710E8300FE0E7E0E0900F5009128831212
:1001080003139F121F169F111F15A1288312031393
:100118009F121F169F151F11A1287508F300F401DF
:100128007408003A03199928A1287308003A03199A
:100138008328013A03198A28A128831203139F14DC
:1001480008008316031788018901831603138601A3
:1001580088018901091483120313860188010A1290
:100168008A11F6200A128A1100300A128A11812097
:100178000A128A1150300A128A11C5200A128A11ED
:100188000800F300730883160313930036308312B4
:1001980003139400803083160313940001309100F8
:1001A800871507168B170B17831203138C118316E9
:1001B80003138C1508000A128A11A5200A128A1145
:1001C800831203131E0886009F141A30F700F830B4
:1001D800F600F60BED28F70BED280000E4280A12CC
:1001E8008A110C28831603178801881608178316A6
:1001F80003130C17831203130C171F083F394038D9
:100208009F009F101F14831603139F131F129F1222
:020218000800DC
:04400E00D4E0FFFFFC
:00000001FF
