:020000040000FA
:060000000A128A110C280F
:10000800FE00030EF1000A08F2000A128A111528F0
:100018000A128A110F28F701F80183010A128A11BE
:10002800EB28831203138C1D1A281B286F2814121F
:10003800141B1F2820282428941F232824282B2811
:100048001308F0007008F80014139413141683169C
:100058000313941A302831284C28141934283528C9
:100068004C28831203131308F0007008F8008C1151
:10007800141683160313141C422843283D288312A0
:100088000313130888005330F000F00B49286C283C
:10009800941A4F2850286C28141D532854286C286B
:1000A800831203131308F0007008F8008316031373
:1000B8001410770883120313930014165330F000BA
:1000C800F00B64288316031314186B286C28662811
:1000D800831203138C110C1F7228732875288B1335
:1000E8000C1372088A00710E8300FE0E7E0E090042
:1000F800F5008C28831203139F121F169F111F15DA
:100108009C28831203139F121F169F151F119C28EA
:100118007508F300F4017408003A031994289C2820
:100128007308003A03197E28013A031985289C2888
:10013800831203139F14080083160317880189018B
:1001480083160313890109140A128A11D4200A128A
:100158008A1100300A128A117C200A128A11303062
:100168000A128A11BA200A128A110800F3007308C9
:1001780083160313930036308312031394008030E0
:1001880083160313940001309100871507168B1707
:100198000B17831203138C11831603138C15080095
:1001A80083160317880188160817831603130C177C
:1001B800831203130C171F083F3940389F009F1004
:1001C8001F14831603139F131F129F1208000A128D
:1001D8008A11A0200A128A11831203131E08F6003E
:0E01E8007608F7009F14F0280A128A110C28DE
:04400E00D4E0FFFFFC
:00000001FF
