:020000040000FA
:060000000A128A110C280F
:10000800FE00030EF1000A08F2000A128A111528F0
:100018000A128A110F28F801F90183010A128A11BC
:10002800D628831203138C1D1A281B287128141232
:10003800141B1F2820282428941F232824282B2811
:100048001308F0007008F90014139413141683169B
:100058000313941A302831284D28141934283528C8
:100068004D28831203131308F0007008F9008C114F
:10007800141683160313141C422843283D288312A0
:10008800031313088800A630F000F00B492800007D
:100098006E28941A502851286E28141D5428552863
:1000A8006E28831203131308F0007008F9008316F2
:1000B8000313141078088312031393001416A63040
:1000C800F000F00B652800008316031314186D2840
:1000D8006E286828831203138C110C1F7428752846
:1000E80077288B130C1372088A00710E8300FE0E9A
:1000F8007E0E0900F5008E28831203139F121F1627
:100108009F111F159E28831203139F121F169F15F8
:100118001F119E287508F300F4017408003A0319AA
:1001280096289E287308003A03198028013A031973
:1001380087289E28831203139F1408008316031729
:100148008801890183160313890109140A128A1187
:10015800EF200A128A1100300A128A117E200A1230
:100168008A1130300A128A11BC200A128A1108003A
:10017800F3007308831603139300363083120313B6
:100188009400803083160313940001309100871582
:1001980007168B170B17831203138C11831603137F
:1001A8008C1508000A128A11A2200A128A118312D9
:1001B80003131E08F6007608F8009F141A30F7009B
:1001C800F830F600F60BE628F70BE6280000DB28E7
:1001D8000A128A110C288316031788018816081733
:1001E800831603130C17831203130C171F083F39C8
:1001F80040389F009F101F14831603139F131F126C
:040208009F12080039
:04400E00D4E0FFFFFC
:00000001FF
